{
  "contractName": "Painting",
  "abi": [
    {
      "inputs": [],
      "stateMutability": "nonpayable",
      "type": "constructor"
    },
    {
      "anonymous": false,
      "inputs": [
        {
          "indexed": true,
          "internalType": "address",
          "name": "owner",
          "type": "address"
        },
        {
          "indexed": true,
          "internalType": "address",
          "name": "approved",
          "type": "address"
        },
        {
          "indexed": true,
          "internalType": "uint256",
          "name": "tokenId",
          "type": "uint256"
        }
      ],
      "name": "Approval",
      "type": "event"
    },
    {
      "anonymous": false,
      "inputs": [
        {
          "indexed": true,
          "internalType": "address",
          "name": "owner",
          "type": "address"
        },
        {
          "indexed": true,
          "internalType": "address",
          "name": "operator",
          "type": "address"
        },
        {
          "indexed": false,
          "internalType": "bool",
          "name": "approved",
          "type": "bool"
        }
      ],
      "name": "ApprovalForAll",
      "type": "event"
    },
    {
      "anonymous": false,
      "inputs": [
        {
          "indexed": true,
          "internalType": "address",
          "name": "from",
          "type": "address"
        },
        {
          "indexed": false,
          "internalType": "uint256",
          "name": "color",
          "type": "uint256"
        }
      ],
      "name": "Painted",
      "type": "event"
    },
    {
      "anonymous": false,
      "inputs": [
        {
          "indexed": true,
          "internalType": "address",
          "name": "from",
          "type": "address"
        },
        {
          "indexed": true,
          "internalType": "address",
          "name": "to",
          "type": "address"
        },
        {
          "indexed": true,
          "internalType": "uint256",
          "name": "tokenId",
          "type": "uint256"
        }
      ],
      "name": "Transfer",
      "type": "event"
    },
    {
      "inputs": [
        {
          "internalType": "address",
          "name": "",
          "type": "address"
        }
      ],
      "name": "CDofPainter",
      "outputs": [
        {
          "internalType": "uint256",
          "name": "",
          "type": "uint256"
        }
      ],
      "stateMutability": "view",
      "type": "function",
      "constant": true
    },
    {
      "inputs": [
        {
          "internalType": "address",
          "name": "to",
          "type": "address"
        },
        {
          "internalType": "uint256",
          "name": "tokenId",
          "type": "uint256"
        }
      ],
      "name": "approve",
      "outputs": [],
      "stateMutability": "nonpayable",
      "type": "function"
    },
    {
      "inputs": [
        {
          "internalType": "address",
          "name": "owner",
          "type": "address"
        }
      ],
      "name": "balanceOf",
      "outputs": [
        {
          "internalType": "uint256",
          "name": "",
          "type": "uint256"
        }
      ],
      "stateMutability": "view",
      "type": "function",
      "constant": true
    },
    {
      "inputs": [],
      "name": "baseTokenURI",
      "outputs": [
        {
          "internalType": "string",
          "name": "",
          "type": "string"
        }
      ],
      "stateMutability": "view",
      "type": "function",
      "constant": true
    },
    {
      "inputs": [
        {
          "internalType": "uint256",
          "name": "tokenId",
          "type": "uint256"
        }
      ],
      "name": "getApproved",
      "outputs": [
        {
          "internalType": "address",
          "name": "",
          "type": "address"
        }
      ],
      "stateMutability": "view",
      "type": "function",
      "constant": true
    },
    {
      "inputs": [
        {
          "internalType": "bytes32",
          "name": "",
          "type": "bytes32"
        }
      ],
      "name": "indexofpaint",
      "outputs": [
        {
          "internalType": "uint256",
          "name": "",
          "type": "uint256"
        }
      ],
      "stateMutability": "view",
      "type": "function",
      "constant": true
    },
    {
      "inputs": [
        {
          "internalType": "address",
          "name": "owner",
          "type": "address"
        },
        {
          "internalType": "address",
          "name": "operator",
          "type": "address"
        }
      ],
      "name": "isApprovedForAll",
      "outputs": [
        {
          "internalType": "bool",
          "name": "",
          "type": "bool"
        }
      ],
      "stateMutability": "view",
      "type": "function",
      "constant": true
    },
    {
      "inputs": [],
      "name": "name",
      "outputs": [
        {
          "internalType": "string",
          "name": "",
          "type": "string"
        }
      ],
      "stateMutability": "view",
      "type": "function",
      "constant": true
    },
    {
      "inputs": [
        {
          "internalType": "uint256",
          "name": "tokenId",
          "type": "uint256"
        }
      ],
      "name": "ownerOf",
      "outputs": [
        {
          "internalType": "address",
          "name": "",
          "type": "address"
        }
      ],
      "stateMutability": "view",
      "type": "function",
      "constant": true
    },
    {
      "inputs": [
        {
          "internalType": "address",
          "name": "",
          "type": "address"
        }
      ],
      "name": "ownerpixelscount",
      "outputs": [
        {
          "internalType": "uint256",
          "name": "",
          "type": "uint256"
        }
      ],
      "stateMutability": "view",
      "type": "function",
      "constant": true
    },
    {
      "inputs": [
        {
          "internalType": "uint256",
          "name": "",
          "type": "uint256"
        }
      ],
      "name": "pictures",
      "outputs": [
        {
          "internalType": "string",
          "name": "name",
          "type": "string"
        },
        {
          "internalType": "bytes32",
          "name": "seed",
          "type": "bytes32"
        }
      ],
      "stateMutability": "view",
      "type": "function",
      "constant": true
    },
    {
      "inputs": [
        {
          "internalType": "uint256",
          "name": "",
          "type": "uint256"
        }
      ],
      "name": "pixels",
      "outputs": [
        {
          "internalType": "address",
          "name": "owner",
          "type": "address"
        },
        {
          "internalType": "uint256",
          "name": "x",
          "type": "uint256"
        },
        {
          "internalType": "uint256",
          "name": "y",
          "type": "uint256"
        },
        {
          "internalType": "uint8",
          "name": "color",
          "type": "uint8"
        }
      ],
      "stateMutability": "view",
      "type": "function",
      "constant": true
    },
    {
      "inputs": [
        {
          "internalType": "address",
          "name": "from",
          "type": "address"
        },
        {
          "internalType": "address",
          "name": "to",
          "type": "address"
        },
        {
          "internalType": "uint256",
          "name": "tokenId",
          "type": "uint256"
        }
      ],
      "name": "safeTransferFrom",
      "outputs": [],
      "stateMutability": "nonpayable",
      "type": "function"
    },
    {
      "inputs": [
        {
          "internalType": "address",
          "name": "from",
          "type": "address"
        },
        {
          "internalType": "address",
          "name": "to",
          "type": "address"
        },
        {
          "internalType": "uint256",
          "name": "tokenId",
          "type": "uint256"
        },
        {
          "internalType": "bytes",
          "name": "data",
          "type": "bytes"
        }
      ],
      "name": "safeTransferFrom",
      "outputs": [],
      "stateMutability": "nonpayable",
      "type": "function"
    },
    {
      "inputs": [
        {
          "internalType": "address",
          "name": "operator",
          "type": "address"
        },
        {
          "internalType": "bool",
          "name": "approved",
          "type": "bool"
        }
      ],
      "name": "setApprovalForAll",
      "outputs": [],
      "stateMutability": "nonpayable",
      "type": "function"
    },
    {
      "inputs": [
        {
          "internalType": "bytes4",
          "name": "interfaceId",
          "type": "bytes4"
        }
      ],
      "name": "supportsInterface",
      "outputs": [
        {
          "internalType": "bool",
          "name": "",
          "type": "bool"
        }
      ],
      "stateMutability": "view",
      "type": "function",
      "constant": true
    },
    {
      "inputs": [],
      "name": "symbol",
      "outputs": [
        {
          "internalType": "string",
          "name": "",
          "type": "string"
        }
      ],
      "stateMutability": "view",
      "type": "function",
      "constant": true
    },
    {
      "inputs": [
        {
          "internalType": "uint256",
          "name": "tokenId",
          "type": "uint256"
        }
      ],
      "name": "tokenURI",
      "outputs": [
        {
          "internalType": "string",
          "name": "",
          "type": "string"
        }
      ],
      "stateMutability": "view",
      "type": "function",
      "constant": true
    },
    {
      "inputs": [
        {
          "internalType": "address",
          "name": "from",
          "type": "address"
        },
        {
          "internalType": "address",
          "name": "to",
          "type": "address"
        },
        {
          "internalType": "uint256",
          "name": "tokenId",
          "type": "uint256"
        }
      ],
      "name": "transferFrom",
      "outputs": [],
      "stateMutability": "nonpayable",
      "type": "function"
    },
    {
      "inputs": [
        {
          "internalType": "uint256",
          "name": "x",
          "type": "uint256"
        },
        {
          "internalType": "uint256",
          "name": "y",
          "type": "uint256"
        },
        {
          "internalType": "uint8",
          "name": "color",
          "type": "uint8"
        }
      ],
      "name": "paint",
      "outputs": [],
      "stateMutability": "nonpayable",
      "type": "function"
    },
    {
      "inputs": [],
      "name": "getsize",
      "outputs": [
        {
          "internalType": "uint256",
          "name": "",
          "type": "uint256"
        }
      ],
      "stateMutability": "view",
      "type": "function",
      "constant": true
    },
    {
      "inputs": [],
      "name": "getfinishtime",
      "outputs": [
        {
          "internalType": "uint256",
          "name": "",
          "type": "uint256"
        }
      ],
      "stateMutability": "view",
      "type": "function",
      "constant": true
    },
    {
      "inputs": [],
      "name": "getpixels",
      "outputs": [
        {
          "components": [
            {
              "internalType": "address",
              "name": "owner",
              "type": "address"
            },
            {
              "internalType": "uint256",
              "name": "x",
              "type": "uint256"
            },
            {
              "internalType": "uint256",
              "name": "y",
              "type": "uint256"
            },
            {
              "internalType": "uint8",
              "name": "color",
              "type": "uint8"
            }
          ],
          "internalType": "struct Painting.Pixel[]",
          "name": "",
          "type": "tuple[]"
        }
      ],
      "stateMutability": "view",
      "type": "function",
      "constant": true
    },
    {
      "inputs": [
        {
          "internalType": "string",
          "name": "_baseTokenURI",
          "type": "string"
        }
      ],
      "name": "setBaseTokenURI",
      "outputs": [],
      "stateMutability": "nonpayable",
      "type": "function"
    }
  ],
  "bytecode": "0x60806040523480156200001157600080fd5b506040518060400160405280600481526020017f444d4150000000000000000000000000000000000000000000000000000000008152506040518060400160405280600381526020017f4e4654000000000000000000000000000000000000000000000000000000000081525081600090816200008f919062000364565b508060019081620000a1919062000364565b5050506080600c819055506212750042620000bd91906200047a565b600d819055506040518060200160405280600081525060079081620000e3919062000364565b50620004b5565b600081519050919050565b7f4e487b7100000000000000000000000000000000000000000000000000000000600052604160045260246000fd5b7f4e487b7100000000000000000000000000000000000000000000000000000000600052602260045260246000fd5b600060028204905060018216806200016c57607f821691505b60208210810362000182576200018162000124565b5b50919050565b60008190508160005260206000209050919050565b60006020601f8301049050919050565b600082821b905092915050565b600060088302620001ec7fffffffffffffffffffffffffffffffffffffffffffffffffffffffffffffffff82620001ad565b620001f88683620001ad565b95508019841693508086168417925050509392505050565b6000819050919050565b6000819050919050565b6000620002456200023f620002398462000210565b6200021a565b62000210565b9050919050565b6000819050919050565b620002618362000224565b6200027962000270826200024c565b848454620001ba565b825550505050565b600090565b6200029062000281565b6200029d81848462000256565b505050565b5b81811015620002c557620002b960008262000286565b600181019050620002a3565b5050565b601f8211156200031457620002de8162000188565b620002e9846200019d565b81016020851015620002f9578190505b6200031162000308856200019d565b830182620002a2565b50505b505050565b600082821c905092915050565b6000620003396000198460080262000319565b1980831691505092915050565b600062000354838362000326565b9150826002028217905092915050565b6200036f82620000ea565b67ffffffffffffffff8111156200038b576200038a620000f5565b5b62000397825462000153565b620003a4828285620002c9565b600060209050601f831160018114620003dc5760008415620003c7578287015190505b620003d3858262000346565b86555062000443565b601f198416620003ec8662000188565b60005b828110156200041657848901518255600182019150602085019450602081019050620003ef565b8683101562000436578489015162000432601f89168262000326565b8355505b6001600288020188555050505b505050505050565b7f4e487b7100000000000000000000000000000000000000000000000000000000600052601160045260246000fd5b6000620004878262000210565b9150620004948362000210565b9250828201905080821115620004af57620004ae6200044b565b5b92915050565b61394b80620004c56000396000f3fe608060405234801561001057600080fd5b50600436106101585760003560e01c80636352211e116100c3578063b88d4fde1161007c578063b88d4fde14610401578063c5f4574c1461041d578063c87b56dd1461044d578063d547cfb71461047d578063df1c895b1461049b578063e985e9c5146104b957610158565b80636352211e1461031857806370a08231146103485780638da7f2321461037857806395d89b41146103ab5780639731a92f146103c9578063a22cb465146103e557610158565b80632a57c409116101155780632a57c409146102435780632ae86866146102615780632fbd40691461027f57806330176e13146102af57806342842e0e146102cb5780634a291142146102e757610158565b806301ffc9a71461015d57806306fdde031461018d578063081812fc146101ab578063095ea7b3146101db57806323481ef7146101f757806323b872dd14610227575b600080fd5b610177600480360381019061017291906123ce565b6104e9565b6040516101849190612416565b60405180910390f35b6101956105cb565b6040516101a291906124c1565b60405180910390f35b6101c560048036038101906101c09190612519565b61065d565b6040516101d29190612587565b60405180910390f35b6101f560048036038101906101f091906125ce565b6106a3565b005b610211600480360381019061020c919061260e565b6107ba565b60405161021e919061264a565b60405180910390f35b610241600480360381019061023c9190612665565b6107d2565b005b61024b610832565b60405161025891906127f6565b60405180910390f35b610269610918565b604051610276919061264a565b60405180910390f35b6102996004803603810190610294919061284e565b610922565b6040516102a6919061264a565b60405180910390f35b6102c960048036038101906102c491906129b0565b61093a565b005b6102e560048036038101906102e09190612665565b61094d565b005b61030160048036038101906102fc9190612519565b61096d565b60405161030f929190612a08565b60405180910390f35b610332600480360381019061032d9190612519565b610a29565b60405161033f9190612587565b60405180910390f35b610362600480360381019061035d919061260e565b610aaf565b60405161036f919061264a565b60405180910390f35b610392600480360381019061038d9190612519565b610b66565b6040516103a29493929190612a47565b60405180910390f35b6103b3610bd3565b6040516103c091906124c1565b60405180910390f35b6103e360048036038101906103de9190612ab8565b610c65565b005b6103ff60048036038101906103fa9190612b37565b6111b4565b005b61041b60048036038101906104169190612c18565b6111ca565b005b6104376004803603810190610432919061260e565b61122c565b604051610444919061264a565b60405180910390f35b61046760048036038101906104629190612519565b611244565b60405161047491906124c1565b60405180910390f35b6104856112ac565b60405161049291906124c1565b60405180910390f35b6104a361133a565b6040516104b0919061264a565b60405180910390f35b6104d360048036038101906104ce9190612c9b565b611344565b6040516104e09190612416565b60405180910390f35b60007f80ac58cd000000000000000000000000000000000000000000000000000000007bffffffffffffffffffffffffffffffffffffffffffffffffffffffff1916827bffffffffffffffffffffffffffffffffffffffffffffffffffffffff191614806105b457507f5b5e139f000000000000000000000000000000000000000000000000000000007bffffffffffffffffffffffffffffffffffffffffffffffffffffffff1916827bffffffffffffffffffffffffffffffffffffffffffffffffffffffff1916145b806105c457506105c3826113d8565b5b9050919050565b6060600080546105da90612d0a565b80601f016020809104026020016040519081016040528092919081815260200182805461060690612d0a565b80156106535780601f1061062857610100808354040283529160200191610653565b820191906000526020600020905b81548152906001019060200180831161063657829003601f168201915b5050505050905090565b600061066882611442565b6004600083815260200190815260200160002060009054906101000a900473ffffffffffffffffffffffffffffffffffffffff169050919050565b60006106ae82610a29565b90508073ffffffffffffffffffffffffffffffffffffffff168373ffffffffffffffffffffffffffffffffffffffff160361071e576040517f08c379a000000000000000000000000000000000000000000000000000000000815260040161071590612dad565b60405180910390fd5b8073ffffffffffffffffffffffffffffffffffffffff1661073d61148d565b73ffffffffffffffffffffffffffffffffffffffff16148061076c575061076b8161076661148d565b611344565b5b6107ab576040517f08c379a00000000000000000000000000000000000000000000000000000000081526004016107a290612e3f565b60405180910390fd5b6107b58383611495565b505050565b60096020528060005260406000206000915090505481565b6107e36107dd61148d565b8261154e565b610822576040517f08c379a000000000000000000000000000000000000000000000000000000000815260040161081990612ed1565b60405180910390fd5b61082d8383836115e3565b505050565b6060600f805480602002602001604051908101604052809291908181526020016000905b8282101561090f57838290600052602060002090600402016040518060800160405290816000820160009054906101000a900473ffffffffffffffffffffffffffffffffffffffff1673ffffffffffffffffffffffffffffffffffffffff1673ffffffffffffffffffffffffffffffffffffffff16815260200160018201548152602001600282015481526020016003820160009054906101000a900460ff1660ff1660ff168152505081526020019060010190610856565b50505050905090565b6000600c54905090565b600b6020528060005260406000206000915090505481565b8060079081610949919061309d565b5050565b610968838383604051806020016040528060008152506111ca565b505050565b6010818154811061097d57600080fd5b90600052602060002090600202016000915090508060000180546109a090612d0a565b80601f01602080910402602001604051908101604052809291908181526020018280546109cc90612d0a565b8015610a195780601f106109ee57610100808354040283529160200191610a19565b820191906000526020600020905b8154815290600101906020018083116109fc57829003601f168201915b5050505050908060010154905082565b600080610a35836118dc565b9050600073ffffffffffffffffffffffffffffffffffffffff168173ffffffffffffffffffffffffffffffffffffffff1603610aa6576040517f08c379a0000000000000000000000000000000000000000000000000000000008152600401610a9d906131bb565b60405180910390fd5b80915050919050565b60008073ffffffffffffffffffffffffffffffffffffffff168273ffffffffffffffffffffffffffffffffffffffff1603610b1f576040517f08c379a0000000000000000000000000000000000000000000000000000000008152600401610b169061324d565b60405180910390fd5b600360008373ffffffffffffffffffffffffffffffffffffffff1673ffffffffffffffffffffffffffffffffffffffff168152602001908152602001600020549050919050565b600f8181548110610b7657600080fd5b90600052602060002090600402016000915090508060000160009054906101000a900473ffffffffffffffffffffffffffffffffffffffff16908060010154908060020154908060030160009054906101000a900460ff16905084565b606060018054610be290612d0a565b80601f0160208091040260200160405190810160405280929190818152602001828054610c0e90612d0a565b8015610c5b5780601f10610c3057610100808354040283529160200191610c5b565b820191906000526020600020905b815481529060010190602001808311610c3e57829003601f168201915b5050505050905090565b42600d541015610c7a57610c7833611919565b505b42600d541015610c8957600080fd5b600c548311158015610c9d5750600c548211155b610ca657600080fd5b600f8160ff1611158015610cbe575060008160ff1610155b610cc757600080fd5b42600960003373ffffffffffffffffffffffffffffffffffffffff1673ffffffffffffffffffffffffffffffffffffffff168152602001908152602001600020541115610d49576040517f08c379a0000000000000000000000000000000000000000000000000000000008152600401610d40906132b9565b60405180910390fd5b60008383604051602001610d5e9291906132fa565b6040516020818303038152906040528051906020012090506000600860008381526020019081526020016000209050600073ffffffffffffffffffffffffffffffffffffffff168160000160009054906101000a900473ffffffffffffffffffffffffffffffffffffffff1673ffffffffffffffffffffffffffffffffffffffff1603610fba57338160000160006101000a81548173ffffffffffffffffffffffffffffffffffffffff021916908373ffffffffffffffffffffffffffffffffffffffff160217905550848160010181905550838160020181905550828160030160006101000a81548160ff021916908360ff160217905550600f8190806001815401808255809150506001900390600052602060002090600402016000909190919091506000820160009054906101000a900473ffffffffffffffffffffffffffffffffffffffff168160000160006101000a81548173ffffffffffffffffffffffffffffffffffffffff021916908373ffffffffffffffffffffffffffffffffffffffff16021790555060018201548160010155600282015481600201556003820160009054906101000a900460ff168160030160006101000a81548160ff021916908360ff1602179055505050600a60003373ffffffffffffffffffffffffffffffffffffffff1673ffffffffffffffffffffffffffffffffffffffff1681526020019081526020016000206000815480929190610f7e90613355565b9190505550600e54600b600084815260200190815260200160002081905550600e6000815480929190610fb090613355565b919050555061110e565b82600f600b60008581526020019081526020016000205481548110610fe257610fe161339d565b5b906000526020600020906004020160030160006101000a81548160ff021916908360ff160217905550600a60003373ffffffffffffffffffffffffffffffffffffffff1673ffffffffffffffffffffffffffffffffffffffff168152602001908152602001600020600081548092919061105b90613355565b9190505550600a6000600f600b6000868152602001908152602001600020548154811061108b5761108a61339d565b5b906000526020600020906004020160000160009054906101000a900473ffffffffffffffffffffffffffffffffffffffff1673ffffffffffffffffffffffffffffffffffffffff1673ffffffffffffffffffffffffffffffffffffffff1681526020019081526020016000206000815480929190611108906133cc565b91905055505b61012c4261111c91906133f5565b600960003373ffffffffffffffffffffffffffffffffffffffff1673ffffffffffffffffffffffffffffffffffffffff168152602001908152602001600020819055503373ffffffffffffffffffffffffffffffffffffffff167f7087c0425f2117d8d78d7f3022e3b3f1de72d08d6f83d92d544ee221a3a0538b846040516111a5919061345a565b60405180910390a25050505050565b6111c66111bf61148d565b8383611991565b5050565b6111db6111d561148d565b8361154e565b61121a576040517f08c379a000000000000000000000000000000000000000000000000000000000815260040161121190612ed1565b60405180910390fd5b61122684848484611afd565b50505050565b600a6020528060005260406000206000915090505481565b606061124f82611442565b6000611259611b59565b9050600081511161127957604051806020016040528060008152506112a4565b8061128384611b70565b6040516020016112949291906134b1565b6040516020818303038152906040525b915050919050565b600780546112b990612d0a565b80601f01602080910402602001604051908101604052809291908181526020018280546112e590612d0a565b80156113325780601f1061130757610100808354040283529160200191611332565b820191906000526020600020905b81548152906001019060200180831161131557829003601f168201915b505050505081565b6000600d54905090565b6000600560008473ffffffffffffffffffffffffffffffffffffffff1673ffffffffffffffffffffffffffffffffffffffff16815260200190815260200160002060008373ffffffffffffffffffffffffffffffffffffffff1673ffffffffffffffffffffffffffffffffffffffff16815260200190815260200160002060009054906101000a900460ff16905092915050565b60007f01ffc9a7000000000000000000000000000000000000000000000000000000007bffffffffffffffffffffffffffffffffffffffffffffffffffffffff1916827bffffffffffffffffffffffffffffffffffffffffffffffffffffffff1916149050919050565b61144b81611c3e565b61148a576040517f08c379a0000000000000000000000000000000000000000000000000000000008152600401611481906131bb565b60405180910390fd5b50565b600033905090565b816004600083815260200190815260200160002060006101000a81548173ffffffffffffffffffffffffffffffffffffffff021916908373ffffffffffffffffffffffffffffffffffffffff160217905550808273ffffffffffffffffffffffffffffffffffffffff1661150883610a29565b73ffffffffffffffffffffffffffffffffffffffff167f8c5be1e5ebec7d5bd14f71427d1e84f3dd0314c0f7b2291e5b200ac8c7c3b92560405160405180910390a45050565b60008061155a83610a29565b90508073ffffffffffffffffffffffffffffffffffffffff168473ffffffffffffffffffffffffffffffffffffffff16148061159c575061159b8185611344565b5b806115da57508373ffffffffffffffffffffffffffffffffffffffff166115c28461065d565b73ffffffffffffffffffffffffffffffffffffffff16145b91505092915050565b8273ffffffffffffffffffffffffffffffffffffffff1661160382610a29565b73ffffffffffffffffffffffffffffffffffffffff1614611659576040517f08c379a000000000000000000000000000000000000000000000000000000000815260040161165090613547565b60405180910390fd5b600073ffffffffffffffffffffffffffffffffffffffff168273ffffffffffffffffffffffffffffffffffffffff16036116c8576040517f08c379a00000000000000000000000000000000000000000000000000000000081526004016116bf906135d9565b60405180910390fd5b6116d58383836001611c7f565b8273ffffffffffffffffffffffffffffffffffffffff166116f582610a29565b73ffffffffffffffffffffffffffffffffffffffff161461174b576040517f08c379a000000000000000000000000000000000000000000000000000000000815260040161174290613547565b60405180910390fd5b6004600082815260200190815260200160002060006101000a81549073ffffffffffffffffffffffffffffffffffffffff02191690556001600360008573ffffffffffffffffffffffffffffffffffffffff1673ffffffffffffffffffffffffffffffffffffffff168152602001908152602001600020600082825403925050819055506001600360008473ffffffffffffffffffffffffffffffffffffffff1673ffffffffffffffffffffffffffffffffffffffff16815260200190815260200160002060008282540192505081905550816002600083815260200190815260200160002060006101000a81548173ffffffffffffffffffffffffffffffffffffffff021916908373ffffffffffffffffffffffffffffffffffffffff160217905550808273ffffffffffffffffffffffffffffffffffffffff168473ffffffffffffffffffffffffffffffffffffffff167fddf252ad1be2c89b69c2b068fc378daa952ba7f163c4a11628f55a4df523b3ef60405160405180910390a46118d78383836001611da5565b505050565b60006002600083815260200190815260200160002060009054906101000a900473ffffffffffffffffffffffffffffffffffffffff169050919050565b600080600a60008473ffffffffffffffffffffffffffffffffffffffff1673ffffffffffffffffffffffffffffffffffffffff168152602001908152602001600020541161196657600080fd5b6119706006611dab565b600061197c6006611dc1565b90506119888382611dcf565b80915050919050565b8173ffffffffffffffffffffffffffffffffffffffff168373ffffffffffffffffffffffffffffffffffffffff16036119ff576040517f08c379a00000000000000000000000000000000000000000000000000000000081526004016119f690613645565b60405180910390fd5b80600560008573ffffffffffffffffffffffffffffffffffffffff1673ffffffffffffffffffffffffffffffffffffffff16815260200190815260200160002060008473ffffffffffffffffffffffffffffffffffffffff1673ffffffffffffffffffffffffffffffffffffffff16815260200190815260200160002060006101000a81548160ff0219169083151502179055508173ffffffffffffffffffffffffffffffffffffffff168373ffffffffffffffffffffffffffffffffffffffff167f17307eab39ab6107e8899845ad3d59bd9653f200f220920489ca2b5937696c3183604051611af09190612416565b60405180910390a3505050565b611b088484846115e3565b611b1484848484611ded565b611b53576040517f08c379a0000000000000000000000000000000000000000000000000000000008152600401611b4a906136d7565b60405180910390fd5b50505050565b606060405180602001604052806000815250905090565b606060006001611b7f84611f74565b01905060008167ffffffffffffffff811115611b9e57611b9d612885565b5b6040519080825280601f01601f191660200182016040528015611bd05781602001600182028036833780820191505090505b509050600082602001820190505b600115611c33578080600190039150507f3031323334353637383961626364656600000000000000000000000000000000600a86061a8153600a8581611c2757611c266136f7565b5b04945060008503611bde575b819350505050919050565b60008073ffffffffffffffffffffffffffffffffffffffff16611c60836118dc565b73ffffffffffffffffffffffffffffffffffffffff1614159050919050565b6001811115611d9f57600073ffffffffffffffffffffffffffffffffffffffff168473ffffffffffffffffffffffffffffffffffffffff1614611d135780600360008673ffffffffffffffffffffffffffffffffffffffff1673ffffffffffffffffffffffffffffffffffffffff1681526020019081526020016000206000828254611d0b9190613726565b925050819055505b600073ffffffffffffffffffffffffffffffffffffffff168373ffffffffffffffffffffffffffffffffffffffff1614611d9e5780600360008573ffffffffffffffffffffffffffffffffffffffff1673ffffffffffffffffffffffffffffffffffffffff1681526020019081526020016000206000828254611d9691906133f5565b925050819055505b5b50505050565b50505050565b6001816000016000828254019250508190555050565b600081600001549050919050565b611de98282604051806020016040528060008152506120c7565b5050565b6000611e0e8473ffffffffffffffffffffffffffffffffffffffff16612122565b15611f67578373ffffffffffffffffffffffffffffffffffffffff1663150b7a02611e3761148d565b8786866040518563ffffffff1660e01b8152600401611e5994939291906137af565b6020604051808303816000875af1925050508015611e9557506040513d601f19601f82011682018060405250810190611e929190613810565b60015b611f17573d8060008114611ec5576040519150601f19603f3d011682016040523d82523d6000602084013e611eca565b606091505b506000815103611f0f576040517f08c379a0000000000000000000000000000000000000000000000000000000008152600401611f06906136d7565b60405180910390fd5b805181602001fd5b63150b7a0260e01b7bffffffffffffffffffffffffffffffffffffffffffffffffffffffff1916817bffffffffffffffffffffffffffffffffffffffffffffffffffffffff191614915050611f6c565b600190505b949350505050565b600080600090507a184f03e93ff9f4daa797ed6e38ed64bf6a1f0100000000000000008310611fd2577a184f03e93ff9f4daa797ed6e38ed64bf6a1f0100000000000000008381611fc857611fc76136f7565b5b0492506040810190505b6d04ee2d6d415b85acef8100000000831061200f576d04ee2d6d415b85acef81000000008381612005576120046136f7565b5b0492506020810190505b662386f26fc10000831061203e57662386f26fc100008381612034576120336136f7565b5b0492506010810190505b6305f5e1008310612067576305f5e100838161205d5761205c6136f7565b5b0492506008810190505b612710831061208c576127108381612082576120816136f7565b5b0492506004810190505b606483106120af57606483816120a5576120a46136f7565b5b0492506002810190505b600a83106120be576001810190505b80915050919050565b6120d18383612145565b6120de6000848484611ded565b61211d576040517f08c379a0000000000000000000000000000000000000000000000000000000008152600401612114906136d7565b60405180910390fd5b505050565b6000808273ffffffffffffffffffffffffffffffffffffffff163b119050919050565b600073ffffffffffffffffffffffffffffffffffffffff168273ffffffffffffffffffffffffffffffffffffffff16036121b4576040517f08c379a00000000000000000000000000000000000000000000000000000000081526004016121ab90613889565b60405180910390fd5b6121bd81611c3e565b156121fd576040517f08c379a00000000000000000000000000000000000000000000000000000000081526004016121f4906138f5565b60405180910390fd5b61220b600083836001611c7f565b61221481611c3e565b15612254576040517f08c379a000000000000000000000000000000000000000000000000000000000815260040161224b906138f5565b60405180910390fd5b6001600360008473ffffffffffffffffffffffffffffffffffffffff1673ffffffffffffffffffffffffffffffffffffffff16815260200190815260200160002060008282540192505081905550816002600083815260200190815260200160002060006101000a81548173ffffffffffffffffffffffffffffffffffffffff021916908373ffffffffffffffffffffffffffffffffffffffff160217905550808273ffffffffffffffffffffffffffffffffffffffff16600073ffffffffffffffffffffffffffffffffffffffff167fddf252ad1be2c89b69c2b068fc378daa952ba7f163c4a11628f55a4df523b3ef60405160405180910390a461235e600083836001611da5565b5050565b6000604051905090565b600080fd5b600080fd5b60007fffffffff0000000000000000000000000000000000000000000000000000000082169050919050565b6123ab81612376565b81146123b657600080fd5b50565b6000813590506123c8816123a2565b92915050565b6000602082840312156123e4576123e361236c565b5b60006123f2848285016123b9565b91505092915050565b60008115159050919050565b612410816123fb565b82525050565b600060208201905061242b6000830184612407565b92915050565b600081519050919050565b600082825260208201905092915050565b60005b8381101561246b578082015181840152602081019050612450565b60008484015250505050565b6000601f19601f8301169050919050565b600061249382612431565b61249d818561243c565b93506124ad81856020860161244d565b6124b681612477565b840191505092915050565b600060208201905081810360008301526124db8184612488565b905092915050565b6000819050919050565b6124f6816124e3565b811461250157600080fd5b50565b600081359050612513816124ed565b92915050565b60006020828403121561252f5761252e61236c565b5b600061253d84828501612504565b91505092915050565b600073ffffffffffffffffffffffffffffffffffffffff82169050919050565b600061257182612546565b9050919050565b61258181612566565b82525050565b600060208201905061259c6000830184612578565b92915050565b6125ab81612566565b81146125b657600080fd5b50565b6000813590506125c8816125a2565b92915050565b600080604083850312156125e5576125e461236c565b5b60006125f3858286016125b9565b925050602061260485828601612504565b9150509250929050565b6000602082840312156126245761262361236c565b5b6000612632848285016125b9565b91505092915050565b612644816124e3565b82525050565b600060208201905061265f600083018461263b565b92915050565b60008060006060848603121561267e5761267d61236c565b5b600061268c868287016125b9565b935050602061269d868287016125b9565b92505060406126ae86828701612504565b9150509250925092565b600081519050919050565b600082825260208201905092915050565b6000819050602082019050919050565b6126ed81612566565b82525050565b6126fc816124e3565b82525050565b600060ff82169050919050565b61271881612702565b82525050565b60808201600082015161273460008501826126e4565b50602082015161274760208501826126f3565b50604082015161275a60408501826126f3565b50606082015161276d606085018261270f565b50505050565b600061277f838361271e565b60808301905092915050565b6000602082019050919050565b60006127a3826126b8565b6127ad81856126c3565b93506127b8836126d4565b8060005b838110156127e95781516127d08882612773565b97506127db8361278b565b9250506001810190506127bc565b5085935050505092915050565b600060208201905081810360008301526128108184612798565b905092915050565b6000819050919050565b61282b81612818565b811461283657600080fd5b50565b60008135905061284881612822565b92915050565b6000602082840312156128645761286361236c565b5b600061287284828501612839565b91505092915050565b600080fd5b600080fd5b7f4e487b7100000000000000000000000000000000000000000000000000000000600052604160045260246000fd5b6128bd82612477565b810181811067ffffffffffffffff821117156128dc576128db612885565b5b80604052505050565b60006128ef612362565b90506128fb82826128b4565b919050565b600067ffffffffffffffff82111561291b5761291a612885565b5b61292482612477565b9050602081019050919050565b82818337600083830152505050565b600061295361294e84612900565b6128e5565b90508281526020810184848401111561296f5761296e612880565b5b61297a848285612931565b509392505050565b600082601f8301126129975761299661287b565b5b81356129a7848260208601612940565b91505092915050565b6000602082840312156129c6576129c561236c565b5b600082013567ffffffffffffffff8111156129e4576129e3612371565b5b6129f084828501612982565b91505092915050565b612a0281612818565b82525050565b60006040820190508181036000830152612a228185612488565b9050612a3160208301846129f9565b9392505050565b612a4181612702565b82525050565b6000608082019050612a5c6000830187612578565b612a69602083018661263b565b612a76604083018561263b565b612a836060830184612a38565b95945050505050565b612a9581612702565b8114612aa057600080fd5b50565b600081359050612ab281612a8c565b92915050565b600080600060608486031215612ad157612ad061236c565b5b6000612adf86828701612504565b9350506020612af086828701612504565b9250506040612b0186828701612aa3565b9150509250925092565b612b14816123fb565b8114612b1f57600080fd5b50565b600081359050612b3181612b0b565b92915050565b60008060408385031215612b4e57612b4d61236c565b5b6000612b5c858286016125b9565b9250506020612b6d85828601612b22565b9150509250929050565b600067ffffffffffffffff821115612b9257612b91612885565b5b612b9b82612477565b9050602081019050919050565b6000612bbb612bb684612b77565b6128e5565b905082815260208101848484011115612bd757612bd6612880565b5b612be2848285612931565b509392505050565b600082601f830112612bff57612bfe61287b565b5b8135612c0f848260208601612ba8565b91505092915050565b60008060008060808587031215612c3257612c3161236c565b5b6000612c40878288016125b9565b9450506020612c51878288016125b9565b9350506040612c6287828801612504565b925050606085013567ffffffffffffffff811115612c8357612c82612371565b5b612c8f87828801612bea565b91505092959194509250565b60008060408385031215612cb257612cb161236c565b5b6000612cc0858286016125b9565b9250506020612cd1858286016125b9565b9150509250929050565b7f4e487b7100000000000000000000000000000000000000000000000000000000600052602260045260246000fd5b60006002820490506001821680612d2257607f821691505b602082108103612d3557612d34612cdb565b5b50919050565b7f4552433732313a20617070726f76616c20746f2063757272656e74206f776e6560008201527f7200000000000000000000000000000000000000000000000000000000000000602082015250565b6000612d9760218361243c565b9150612da282612d3b565b604082019050919050565b60006020820190508181036000830152612dc681612d8a565b9050919050565b7f4552433732313a20617070726f76652063616c6c6572206973206e6f7420746f60008201527f6b656e206f776e6572206f7220617070726f76656420666f7220616c6c000000602082015250565b6000612e29603d8361243c565b9150612e3482612dcd565b604082019050919050565b60006020820190508181036000830152612e5881612e1c565b9050919050565b7f4552433732313a2063616c6c6572206973206e6f7420746f6b656e206f776e6560008201527f72206f7220617070726f76656400000000000000000000000000000000000000602082015250565b6000612ebb602d8361243c565b9150612ec682612e5f565b604082019050919050565b60006020820190508181036000830152612eea81612eae565b9050919050565b60008190508160005260206000209050919050565b60006020601f8301049050919050565b600082821b905092915050565b600060088302612f537fffffffffffffffffffffffffffffffffffffffffffffffffffffffffffffffff82612f16565b612f5d8683612f16565b95508019841693508086168417925050509392505050565b6000819050919050565b6000612f9a612f95612f90846124e3565b612f75565b6124e3565b9050919050565b6000819050919050565b612fb483612f7f565b612fc8612fc082612fa1565b848454612f23565b825550505050565b600090565b612fdd612fd0565b612fe8818484612fab565b505050565b5b8181101561300c57613001600082612fd5565b600181019050612fee565b5050565b601f8211156130515761302281612ef1565b61302b84612f06565b8101602085101561303a578190505b61304e61304685612f06565b830182612fed565b50505b505050565b600082821c905092915050565b600061307460001984600802613056565b1980831691505092915050565b600061308d8383613063565b9150826002028217905092915050565b6130a682612431565b67ffffffffffffffff8111156130bf576130be612885565b5b6130c98254612d0a565b6130d4828285613010565b600060209050601f83116001811461310757600084156130f5578287015190505b6130ff8582613081565b865550613167565b601f19841661311586612ef1565b60005b8281101561313d57848901518255600182019150602085019450602081019050613118565b8683101561315a5784890151613156601f891682613063565b8355505b6001600288020188555050505b505050505050565b7f4552433732313a20696e76616c696420746f6b656e2049440000000000000000600082015250565b60006131a560188361243c565b91506131b08261316f565b602082019050919050565b600060208201905081810360008301526131d481613198565b9050919050565b7f4552433732313a2061646472657373207a65726f206973206e6f74206120766160008201527f6c6964206f776e65720000000000000000000000000000000000000000000000602082015250565b600061323760298361243c565b9150613242826131db565b604082019050919050565b600060208201905081810360008301526132668161322a565b9050919050565b7f486176656e277420636f6f6c656420646f776e21000000000000000000000000600082015250565b60006132a360148361243c565b91506132ae8261326d565b602082019050919050565b600060208201905081810360008301526132d281613296565b9050919050565b6000819050919050565b6132f46132ef826124e3565b6132d9565b82525050565b600061330682856132e3565b60208201915061331682846132e3565b6020820191508190509392505050565b7f4e487b7100000000000000000000000000000000000000000000000000000000600052601160045260246000fd5b6000613360826124e3565b91507fffffffffffffffffffffffffffffffffffffffffffffffffffffffffffffffff820361339257613391613326565b5b600182019050919050565b7f4e487b7100000000000000000000000000000000000000000000000000000000600052603260045260246000fd5b60006133d7826124e3565b9150600082036133ea576133e9613326565b5b600182039050919050565b6000613400826124e3565b915061340b836124e3565b925082820190508082111561342357613422613326565b5b92915050565b600061344461343f61343a84612702565b612f75565b6124e3565b9050919050565b61345481613429565b82525050565b600060208201905061346f600083018461344b565b92915050565b600081905092915050565b600061348b82612431565b6134958185613475565b93506134a581856020860161244d565b80840191505092915050565b60006134bd8285613480565b91506134c98284613480565b91508190509392505050565b7f4552433732313a207472616e736665722066726f6d20696e636f72726563742060008201527f6f776e6572000000000000000000000000000000000000000000000000000000602082015250565b600061353160258361243c565b915061353c826134d5565b604082019050919050565b6000602082019050818103600083015261356081613524565b9050919050565b7f4552433732313a207472616e7366657220746f20746865207a65726f2061646460008201527f7265737300000000000000000000000000000000000000000000000000000000602082015250565b60006135c360248361243c565b91506135ce82613567565b604082019050919050565b600060208201905081810360008301526135f2816135b6565b9050919050565b7f4552433732313a20617070726f766520746f2063616c6c657200000000000000600082015250565b600061362f60198361243c565b915061363a826135f9565b602082019050919050565b6000602082019050818103600083015261365e81613622565b9050919050565b7f4552433732313a207472616e7366657220746f206e6f6e20455243373231526560008201527f63656976657220696d706c656d656e7465720000000000000000000000000000602082015250565b60006136c160328361243c565b91506136cc82613665565b604082019050919050565b600060208201905081810360008301526136f0816136b4565b9050919050565b7f4e487b7100000000000000000000000000000000000000000000000000000000600052601260045260246000fd5b6000613731826124e3565b915061373c836124e3565b925082820390508181111561375457613753613326565b5b92915050565b600081519050919050565b600082825260208201905092915050565b60006137818261375a565b61378b8185613765565b935061379b81856020860161244d565b6137a481612477565b840191505092915050565b60006080820190506137c46000830187612578565b6137d16020830186612578565b6137de604083018561263b565b81810360608301526137f08184613776565b905095945050505050565b60008151905061380a816123a2565b92915050565b6000602082840312156138265761382561236c565b5b6000613834848285016137fb565b91505092915050565b7f4552433732313a206d696e7420746f20746865207a65726f2061646472657373600082015250565b600061387360208361243c565b915061387e8261383d565b602082019050919050565b600060208201905081810360008301526138a281613866565b9050919050565b7f4552433732313a20746f6b656e20616c7265616479206d696e74656400000000600082015250565b60006138df601c8361243c565b91506138ea826138a9565b602082019050919050565b6000602082019050818103600083015261390e816138d2565b905091905056fea26469706673582212205f8f5d672428768d519f56722ccdb5e3e1e0309c84231760372b2574402cff9664736f6c63430008110033",
  "immutableReferences": {},
  "source": "// SPDX-License-Identifier: MIT\npragma solidity >=0.4.22 <0.9.0;\nimport \"@openzeppelin/contracts/token/ERC721/ERC721.sol\";\nimport \"@openzeppelin/contracts/utils/Counters.sol\";\n\ncontract Painting is ERC721 {\n\n    using Counters for Counters.Counter;\n    Counters.Counter private currentTokenId;\n\n    string public baseTokenURI;\n\n\n    struct Pixel {\n        address owner;\n        uint256 x;\n        uint256 y;\n        uint8 color;\n    }\n\n    struct Pic {\n        string name;\n        bytes32 seed;\n    }\n\n    mapping(bytes32 => Pixel) private datamatching;\n    mapping(address => uint) public CDofPainter;\n    mapping(address => uint) public ownerpixelscount;\n    mapping(bytes32 => uint) public indexofpaint;\n\n    uint256 _size;\n    uint256 _finishtime;\n    uint _idx;\n\n    Pixel[] public pixels;\n    Pic[] public pictures;\n\n    constructor() ERC721(\"DMAP\", \"NFT\") {\n        _size = 128;\n        _finishtime = block.timestamp + 14 days;\n        baseTokenURI = \"\";\n    }\n\n    function mintTo(address recipient) private returns (uint256){\n        require(ownerpixelscount[recipient] > 0);\n        currentTokenId.increment();\n        uint256 newItemId = currentTokenId.current();\n        _safeMint(recipient, newItemId);\n        return newItemId;\n    }\n\n    function paint(uint256 x, uint256 y, uint8 color) public {\n        if (_finishtime < block.timestamp) {mintTo(msg.sender);}\n        require(_finishtime >= block.timestamp);\n        require(x <= _size && y <= _size);\n        require(color <= 15 && color >= 0);\n        require(CDofPainter[msg.sender] <= block.timestamp, \"Haven't cooled down!\");\n\n        bytes32 position = keccak256(abi.encodePacked(x,y));\n        Pixel storage pixel = datamatching[position];\n        if (pixel.owner == 0x0000000000000000000000000000000000000000) {\n            pixel.owner = msg.sender;\n            pixel.x = x;\n            pixel.y = y;\n            pixel.color = color;\n            pixels.push(pixel);\n            ownerpixelscount[msg.sender] ++;\n            indexofpaint[position] = _idx;\n            _idx ++;\n\n        } else {\n            pixels[indexofpaint[position]].color = color;\n            ownerpixelscount[msg.sender] ++;\n            ownerpixelscount[pixels[indexofpaint[position]].owner] --;\n        }\n\n        CDofPainter[msg.sender] = block.timestamp + 5 minutes;\n        emit Painted(msg.sender, color);\n    }\n\n    function getsize() view public returns (uint) {\n        return _size;\n    }\n\n    function getfinishtime() view public returns (uint) {\n        return _finishtime;\n    }\n\n    function getpixels() view public returns (Pixel[] memory) {\n        return pixels;\n    }\n\n    function setBaseTokenURI(string memory _baseTokenURI) public {\n        baseTokenURI = _baseTokenURI;\n    }\n\n    event Painted(address indexed from, uint256 color);\n}\n\n",
  "sourcePath": "/Users/imperialacademy/DMAP/contracts/Painting.sol",
  "compiler": {
    "name": "solc",
    "version": "0.8.17+commit.8df45f5f.Emscripten.clang"
  },
  "schemaVersion": "3.4.11",
  "updatedAt": "2022-12-08T17:05:49.324Z",
  "networkType": "ethereum",
  "devdoc": {
    "kind": "dev",
    "methods": {
      "approve(address,uint256)": {
        "details": "See {IERC721-approve}."
      },
      "balanceOf(address)": {
        "details": "See {IERC721-balanceOf}."
      },
      "getApproved(uint256)": {
        "details": "See {IERC721-getApproved}."
      },
      "isApprovedForAll(address,address)": {
        "details": "See {IERC721-isApprovedForAll}."
      },
      "name()": {
        "details": "See {IERC721Metadata-name}."
      },
      "ownerOf(uint256)": {
        "details": "See {IERC721-ownerOf}."
      },
      "safeTransferFrom(address,address,uint256)": {
        "details": "See {IERC721-safeTransferFrom}."
      },
      "safeTransferFrom(address,address,uint256,bytes)": {
        "details": "See {IERC721-safeTransferFrom}."
      },
      "setApprovalForAll(address,bool)": {
        "details": "See {IERC721-setApprovalForAll}."
      },
      "supportsInterface(bytes4)": {
        "details": "See {IERC165-supportsInterface}."
      },
      "symbol()": {
        "details": "See {IERC721Metadata-symbol}."
      },
      "tokenURI(uint256)": {
        "details": "See {IERC721Metadata-tokenURI}."
      },
      "transferFrom(address,address,uint256)": {
        "details": "See {IERC721-transferFrom}."
      }
    },
    "version": 1
  },
  "userdoc": {
    "kind": "user",
    "methods": {},
    "version": 1
  }
}