{
  "contractName": "Painting",
  "abi": [
    {
      "inputs": [
        {
          "internalType": "uint256",
          "name": "size",
          "type": "uint256"
        }
      ],
      "stateMutability": "nonpayable",
      "type": "constructor"
    },
    {
      "anonymous": false,
      "inputs": [
        {
          "indexed": true,
          "internalType": "address",
          "name": "from",
          "type": "address"
        },
        {
          "indexed": false,
          "internalType": "uint256",
          "name": "color",
          "type": "uint256"
        }
      ],
      "name": "Painted",
      "type": "event"
    },
    {
      "inputs": [
        {
          "internalType": "address",
          "name": "",
          "type": "address"
        }
      ],
      "name": "CDofPainter",
      "outputs": [
        {
          "internalType": "uint256",
          "name": "",
          "type": "uint256"
        }
      ],
      "stateMutability": "view",
      "type": "function",
      "constant": true
    },
    {
      "inputs": [
        {
          "internalType": "uint256",
          "name": "",
          "type": "uint256"
        }
      ],
      "name": "pixels",
      "outputs": [
        {
          "internalType": "address",
          "name": "owner",
          "type": "address"
        },
        {
          "internalType": "uint256",
          "name": "x",
          "type": "uint256"
        },
        {
          "internalType": "uint256",
          "name": "y",
          "type": "uint256"
        },
        {
          "internalType": "uint8",
          "name": "color",
          "type": "uint8"
        }
      ],
      "stateMutability": "view",
      "type": "function",
      "constant": true
    },
    {
      "inputs": [
        {
          "internalType": "uint256",
          "name": "x",
          "type": "uint256"
        },
        {
          "internalType": "uint256",
          "name": "y",
          "type": "uint256"
        },
        {
          "internalType": "uint8",
          "name": "color",
          "type": "uint8"
        }
      ],
      "name": "paint",
      "outputs": [],
      "stateMutability": "nonpayable",
      "type": "function"
    },
    {
      "inputs": [
        {
          "internalType": "uint256",
          "name": "x",
          "type": "uint256"
        },
        {
          "internalType": "uint256",
          "name": "y",
          "type": "uint256"
        }
      ],
      "name": "getData",
      "outputs": [
        {
          "internalType": "address",
          "name": "",
          "type": "address"
        },
        {
          "internalType": "uint256",
          "name": "",
          "type": "uint256"
        },
        {
          "internalType": "uint256",
          "name": "",
          "type": "uint256"
        },
        {
          "internalType": "uint256",
          "name": "",
          "type": "uint256"
        }
      ],
      "stateMutability": "view",
      "type": "function",
      "constant": true
    },
    {
      "inputs": [],
      "name": "test",
      "outputs": [
        {
          "internalType": "uint256",
          "name": "",
          "type": "uint256"
        }
      ],
      "stateMutability": "pure",
      "type": "function",
      "constant": true
    },
    {
      "inputs": [],
      "name": "getsize",
      "outputs": [
        {
          "internalType": "uint256",
          "name": "",
          "type": "uint256"
        }
      ],
      "stateMutability": "view",
      "type": "function",
      "constant": true
    },
    {
      "inputs": [],
      "name": "getfinishtime",
      "outputs": [
        {
          "internalType": "uint256",
          "name": "",
          "type": "uint256"
        }
      ],
      "stateMutability": "view",
      "type": "function",
      "constant": true
    },
    {
      "inputs": [],
      "name": "getpixels",
      "outputs": [
        {
          "components": [
            {
              "internalType": "address",
              "name": "owner",
              "type": "address"
            },
            {
              "internalType": "uint256",
              "name": "x",
              "type": "uint256"
            },
            {
              "internalType": "uint256",
              "name": "y",
              "type": "uint256"
            },
            {
              "internalType": "uint8",
              "name": "color",
              "type": "uint8"
            }
          ],
          "internalType": "struct Painting.Pixel[]",
          "name": "",
          "type": "tuple[]"
        }
      ],
      "stateMutability": "view",
      "type": "function",
      "constant": true
    }
  ],
  "bytecode": "0x60806040523480156200001157600080fd5b5060405162000ea938038062000ea983398181016040528101906200003791906200009c565b8060028190555062127500426200004f9190620000fd565b6003819055505062000138565b600080fd5b6000819050919050565b620000768162000061565b81146200008257600080fd5b50565b60008151905062000096816200006b565b92915050565b600060208284031215620000b557620000b46200005c565b5b6000620000c58482850162000085565b91505092915050565b7f4e487b7100000000000000000000000000000000000000000000000000000000600052601160045260246000fd5b60006200010a8262000061565b9150620001178362000061565b9250828201905080821115620001325762000131620000ce565b5b92915050565b610d6180620001486000396000f3fe608060405234801561001057600080fd5b50600436106100885760003560e01c80638da7f2321161005b5780638da7f2321461012c5780639731a92f1461015f578063df1c895b1461017b578063f8a8fd6d1461019957610088565b806323481ef71461008d5780632a57c409146100bd5780632ae86866146100db5780634e4fe306146100f9575b600080fd5b6100a760048036038101906100a291906107d1565b6101b7565b6040516100b49190610817565b60405180910390f35b6100c56101cf565b6040516100d29190610970565b60405180910390f35b6100e36102b5565b6040516100f09190610817565b60405180910390f35b610113600480360381019061010e91906109be565b6102bf565b6040516101239493929190610a0d565b60405180910390f35b61014660048036038101906101419190610a52565b61038f565b6040516101569493929190610a8e565b60405180910390f35b61017960048036038101906101749190610aff565b6103fc565b005b61018361070a565b6040516101909190610817565b60405180910390f35b6101a1610714565b6040516101ae9190610817565b60405180910390f35b60016020528060005260406000206000915090505481565b60606004805480602002602001604051908101604052809291908181526020016000905b828210156102ac57838290600052602060002090600402016040518060800160405290816000820160009054906101000a900473ffffffffffffffffffffffffffffffffffffffff1673ffffffffffffffffffffffffffffffffffffffff1673ffffffffffffffffffffffffffffffffffffffff16815260200160018201548152602001600282015481526020016003820160009054906101000a900460ff1660ff1660ff1681525050815260200190600101906101f3565b50505050905090565b6000600254905090565b600080600080600086866040516020016102da929190610b73565b60405160208183030381529060405280519060200120905060008082815260200190815260200160002060000160009054906101000a900473ffffffffffffffffffffffffffffffffffffffff16600080838152602001908152602001600020600101546000808481526020019081526020016000206002015460008085815260200190815260200160002060030160009054906101000a900460ff168060ff16905094509450945094505092959194509250565b6004818154811061039f57600080fd5b90600052602060002090600402016000915090508060000160009054906101000a900473ffffffffffffffffffffffffffffffffffffffff16908060010154908060020154908060030160009054906101000a900460ff16905084565b42600354101561040f5761040e61071d565b5b42600354101561041e57600080fd5b600254831115801561043257506002548211155b61043b57600080fd5b600f8160ff1611158015610453575060008160ff1610155b61045c57600080fd5b42600160003373ffffffffffffffffffffffffffffffffffffffff1673ffffffffffffffffffffffffffffffffffffffff1681526020019081526020016000205411156104de576040517f08c379a00000000000000000000000000000000000000000000000000000000081526004016104d590610bfc565b60405180910390fd5b600080600085856040516020016104f6929190610b73565b6040516020818303038152906040528051906020012081526020019081526020016000209050338160000160006101000a81548173ffffffffffffffffffffffffffffffffffffffff021916908373ffffffffffffffffffffffffffffffffffffffff160217905550838160010181905550828160020181905550818160030160006101000a81548160ff021916908360ff16021790555060048190806001815401808255809150506001900390600052602060002090600402016000909190919091506000820160009054906101000a900473ffffffffffffffffffffffffffffffffffffffff168160000160006101000a81548173ffffffffffffffffffffffffffffffffffffffff021916908373ffffffffffffffffffffffffffffffffffffffff16021790555060018201548160010155600282015481600201556003820160009054906101000a900460ff168160030160006101000a81548160ff021916908360ff160217905550505061012c426106739190610c4b565b600160003373ffffffffffffffffffffffffffffffffffffffff1673ffffffffffffffffffffffffffffffffffffffff168152602001908152602001600020819055503373ffffffffffffffffffffffffffffffffffffffff167f7087c0425f2117d8d78d7f3022e3b3f1de72d08d6f83d92d544ee221a3a0538b836040516106fc9190610cba565b60405180910390a250505050565b6000600354905090565b60006001905090565b3373ffffffffffffffffffffffffffffffffffffffff167f7087c0425f2117d8d78d7f3022e3b3f1de72d08d6f83d92d544ee221a3a0538b607b6040516107649190610d10565b60405180910390a2565b600080fd5b600073ffffffffffffffffffffffffffffffffffffffff82169050919050565b600061079e82610773565b9050919050565b6107ae81610793565b81146107b957600080fd5b50565b6000813590506107cb816107a5565b92915050565b6000602082840312156107e7576107e661076e565b5b60006107f5848285016107bc565b91505092915050565b6000819050919050565b610811816107fe565b82525050565b600060208201905061082c6000830184610808565b92915050565b600081519050919050565b600082825260208201905092915050565b6000819050602082019050919050565b61086781610793565b82525050565b610876816107fe565b82525050565b600060ff82169050919050565b6108928161087c565b82525050565b6080820160008201516108ae600085018261085e565b5060208201516108c1602085018261086d565b5060408201516108d4604085018261086d565b5060608201516108e76060850182610889565b50505050565b60006108f98383610898565b60808301905092915050565b6000602082019050919050565b600061091d82610832565b610927818561083d565b93506109328361084e565b8060005b8381101561096357815161094a88826108ed565b975061095583610905565b925050600181019050610936565b5085935050505092915050565b6000602082019050818103600083015261098a8184610912565b905092915050565b61099b816107fe565b81146109a657600080fd5b50565b6000813590506109b881610992565b92915050565b600080604083850312156109d5576109d461076e565b5b60006109e3858286016109a9565b92505060206109f4858286016109a9565b9150509250929050565b610a0781610793565b82525050565b6000608082019050610a2260008301876109fe565b610a2f6020830186610808565b610a3c6040830185610808565b610a496060830184610808565b95945050505050565b600060208284031215610a6857610a6761076e565b5b6000610a76848285016109a9565b91505092915050565b610a888161087c565b82525050565b6000608082019050610aa360008301876109fe565b610ab06020830186610808565b610abd6040830185610808565b610aca6060830184610a7f565b95945050505050565b610adc8161087c565b8114610ae757600080fd5b50565b600081359050610af981610ad3565b92915050565b600080600060608486031215610b1857610b1761076e565b5b6000610b26868287016109a9565b9350506020610b37868287016109a9565b9250506040610b4886828701610aea565b9150509250925092565b6000819050919050565b610b6d610b68826107fe565b610b52565b82525050565b6000610b7f8285610b5c565b602082019150610b8f8284610b5c565b6020820191508190509392505050565b600082825260208201905092915050565b7f486176656e277420636f6f6c656420646f776e21000000000000000000000000600082015250565b6000610be6601483610b9f565b9150610bf182610bb0565b602082019050919050565b60006020820190508181036000830152610c1581610bd9565b9050919050565b7f4e487b7100000000000000000000000000000000000000000000000000000000600052601160045260246000fd5b6000610c56826107fe565b9150610c61836107fe565b9250828201905080821115610c7957610c78610c1c565b5b92915050565b6000819050919050565b6000610ca4610c9f610c9a8461087c565b610c7f565b6107fe565b9050919050565b610cb481610c89565b82525050565b6000602082019050610ccf6000830184610cab565b92915050565b6000819050919050565b6000610cfa610cf5610cf084610cd5565b610c7f565b6107fe565b9050919050565b610d0a81610cdf565b82525050565b6000602082019050610d256000830184610d01565b9291505056fea26469706673582212202548d61f6dc96e9229329a7421a30e7e5d36b1a3f50c949da3f812c12939274264736f6c63430008110033",
  "immutableReferences": {},
  "source": "// SPDX-License-Identifier: MIT\npragma solidity >=0.4.22 <0.9.0;\n\ncontract Painting {\n    struct Pixel {\n        address owner;\n        uint256 x;\n        uint256 y;\n        uint8 color;\n    }\n\n    mapping(bytes32 => Pixel) private datamatching;\n    mapping(address => uint) public CDofPainter;\n\n    uint256 _size;\n    uint256 _finishtime;\n\n    Pixel[] public pixels;\n\n    constructor(uint256 size) {\n        _size = size;\n        _finishtime = block.timestamp + 14 days;\n    }\n\n    function mint() private {\n        emit Painted(msg.sender, 123);\n    }\n\n    function paint(uint256 x, uint256 y, uint8 color) public {\n        if (_finishtime < block.timestamp) {mint();}\n        require(_finishtime >= block.timestamp);\n        require(x <= _size && y <= _size);\n        require(color <= 15 && color >= 0);\n        require(CDofPainter[msg.sender] <= block.timestamp, \"Haven't cooled down!\");\n\n        Pixel storage pixel = datamatching[keccak256(abi.encodePacked(x,y))];\n        pixel.owner = msg.sender;\n        pixel.x = x;\n        pixel.y = y;\n        pixel.color = color;\n        pixels.push(pixel);\n\n        CDofPainter[msg.sender] = block.timestamp + 5 minutes;\n        emit Painted(msg.sender, color);\n    }\n\n    function getData(uint256 x, uint256 y) view public returns (address, uint, uint, uint) {\n        bytes32 position = keccak256(abi.encodePacked(x,y));\n        return (datamatching[position].owner, datamatching[position].x, datamatching[position].y, datamatching[position].color);\n    }\n\n    function test() pure public returns (uint) {\n      return (1);\n    }\n\n    function getsize() view public returns (uint) {\n        return _size;\n    }\n\n    function getfinishtime() view public returns (uint) {\n        return _finishtime;\n    }\n\n    function getpixels() view public returns (Pixel[] memory) {\n        return pixels;\n    }\n\n    event Painted(address indexed from, uint256 color);\n}\n\n",
  "sourcePath": "/Users/imperialacademy/DMAP/contracts/Painting.sol",
  "compiler": {
    "name": "solc",
    "version": "0.8.17+commit.8df45f5f.Emscripten.clang"
  },
  "schemaVersion": "3.4.11",
  "updatedAt": "2022-12-05T13:48:20.783Z",
  "networkType": "ethereum",
  "devdoc": {
    "kind": "dev",
    "methods": {},
    "version": 1
  },
  "userdoc": {
    "kind": "user",
    "methods": {},
    "version": 1
  }
}